S01D000053656E696F7250726F6A656374424C494E4B4C45442E737265637B
S113000010C0A8C1E6C128C05FC126C025C024C055
S113001023C022C021C020C01FC01EC01DC01CC0E0
S11300201BC011241FBECFE5D2E0DEBFCDBF11E05F
S1130030A0E6B0E0ECE5FDE002C005900D92AE3D17
S1130040B107D9F722E0AEEDB1E001C01D92AA30AC
S1130050B207E1F7F2D180C6D3CF0F931F93CF93AA
S1130060DF93CDB7DEB70091E0011091E10120915B
S1130070E2013091E3014091E4015091E501609186
S1130080E6017091E7018091E801E8D00091F20166
S11300901091F3012091F4013091F5014091F601A2
S11300A05091F7016091F8017091F9018091FA0182
S11300B0D5D081E390E020E2FC01208386E290E049
S11300C024E0FC012083DF91CF911F910F910895CB
S11300D0CF93DF93CDB7DEB785E08093E00182E371
S11300E090E09093E2018093E10181E390E09093AA
S11300F0E4018093E3018AE490E09093E801809323
S1130100E70182E08093F20187E290E09093F401AA
S11301108093F30188E490E09093FA018093F901CD
S113012086E290E09093F6018093F501109201022B
S11301301092000282E08093FB0182E390E09093AE
S1130140FD018093FC0181E390E09093FF01809393
S1130150FE0110920302109202021092EF0110921B
S1130160EE0183E08093E90182E390E09093EB0158
S11301708093EA0181E390E09093ED018093EC0198
S1130180DF91CF910895CF93DF9300D0CDB7DEB741
S11301909A838983F89480E490E029813A81232F1B
S11301A03327FC01208389E290E02981FC0120832C
S11301B08AE290E028E1FC01208380E490E02EE8CC
S11301C0FC01208380E690E0909305028093040272
S11301D080E690E0909307028093060278940F9053
S11301E00F90DF91CF910895CF93DF9300D01F92AA
S11301F0CDB7DEB789837B836A8300008BE290E00E
S1130200FC018081882F90E0807299270097B1F3D8
S11302108CE290E02981FC01208380E090E00F9043
S11302200F900F90DF91CF910895CF93DF9300D07B
S1130230CDB7DEB79A83898300008BE290E0FC019E
S113024080818823D4F78CE290E0FC018081882FA0
S113025090E00F900F90DF91CF9108950F931F932B
S1130260CF93DF93CDB7DEB729970FB6F894DEBFEF
S11302700FBECDBF09831A832B833C834D835E83DA
S11302806F83788789878A819B812A813B81F901E1
S11302902081622F2981422F50E021E030E0042E9A
S11302A002C0220F331F0A94E2F720952623FC0193
S11302B0208329960FB6F894DEBF0FBECDBFDF9121
S11302C0CF911F910F9108951F920F9200905F009C
S11302D00F9211242F933F934F935F936F937F93C8
S11302E08F939F93AF93BF93EF93FF93CF93DF933A
S11302F0CDB7DEB78091DE019091DF010196909336
S1130300DF018093DE018091DE019091DF01292FCE
S11303102F938F9386E491E0892F8F9386E491E065
S11303208F9336D20F900F900F900F90DF91CF9153
S1130330FF91EF91BF91AF919F918F917F916F91B9
S11303405F914F913F912F910F9000925F000F901A
S11303501F9018951F920F9200905F000F92112426
S11303602F933F934F935F936F937F938F939F93B9
S1130370AF93BF93EF93FF93CF93DF93CDB7DEB7E4
S113038082E590E0FC018081882F90E0292F2F9353
S11303908F9382E791E0892F8F9382E791E08F9387
S11303A0F7D10F900F900F900F90DF91CF91FF91A5
S11303B0EF91BF91AF919F918F917F916F915F91D9
S11303C04F913F912F910F9000925F000F901F90DB
S11303D018951F920F9200905F000F9211242F9393
S11303E03F934F935F936F937F938F939F93AF93B9
S11303F0BF93EF93FF93CF93DF93CDB7DEB78EE830
S113040091E0892F8F938EE891E08F93C1D10F9063
S11304100F90DF91CF91FF91EF91BF91AF919F9199
S11304208F917F916F915F914F913F912F910F9099
S113043000925F000F901F9018950F931F93CF9316
S1130440DF93CDB7DEB762970FB6F894DEBF0FBE69
S1130450CDBF86D085EA91E0ACD180910402909121
S113046005029A83898380910402909105029C83FA
S11304708B838DEB91E09DD180E090E0AAE7B4E41A
S11304808D839E83AF83B88720E030E04AEF54E445
S11304906D817E818F81988518D1DC01CB0189879C
S11304A09A87AB87BC8720E030E040E85FE369854A
S11304B07A858B859C8560D088232CF481E090E03C
S11304C09E878D873EC020E03FEF4FE757E4698564
S11304D07A858B859C85F5D0181654F520E030E09C
S11304E040E251E46D817E818F819885EED0DC01FC
S11304F0CB01BC01CD0144D0DC01CB019E878D87AB
S113050012C088EC90E0988B8F878F8598898C0136
S1130510C8010197F1F78C01188B0F878D859E8593
S113052001979E878D878D859E85009751F717C00B
S113053069857A858B859C8523D0DC01CB019E87D8
S11305408D878D859E859A8B898B89899A898C0163
S1130550C8010197F1F78C011A8B098B8ACF89CFD7
S1130560CF93DF93CDB7DEB783E390E00CDE75DD88
S1130570AFDDDF91CF9108952FD008F481E0089585
S11305807FD088F09F5790F0B92F9927B751A0F0EA
S1130590D1F0660F771F881F991F1AF0BA95C9F713
S11305A012C0B13081F086D0B1E0089583C0672FC6
S11305B0782F8827B85F39F0B93FCCF386957795C3
S11305C06795B395D9F73EF49095809570956195AC
S11305D07F4F8F4F9F4F0895990F0008550FAA0B17
S11305E0E0E8FEEF16161706E807F907C0F0121642
S11305F01306E407F50798F0621B730B840B950B45
S113060039F40A2661F0232B242B252B21F4089599
S11306100A2609F4A140A6958FEF811D811D089536
S113062097F99F6780E870E060E008959FEF80ECA1
S1130630089500240A941616170618060906089544
S113064000240A9412161306140605060895092EAA
S11306500394000C11F4882352F0BB0F40F4BF2B19
S113066011F460FF04C06F5F7F4F8F4F9F4F089559
S113067057FD9058440F551F59F05F3F71F047954F
S1130680880F97FB991F61F09F3F79F08795089534
S1130690121613061406551FF2CF4695F1DF08C053
S11306A0161617061806991FF1CF86957105610570
S11306B008940895E894BB2766277727CB0197F918
S11306C008958ADF08F48FEF08950BD0C0CFB1DF0F
S11306D028F0B6DF18F0952309F0A2CFA7CF112494
S11306E0EACFC6DFA0F3959FD1F3950F50E0551FD5
S11306F0629FF001729FBB27F00DB11D639FAA2773
S1130700F00DB11DAA1F649F6627B00DA11D661FC1
S1130710829F2227B00DA11D621F739FB00DA11DE2
S1130720621F839FA00D611D221F749F3327A00D9C
S1130730611D231F849F600D211D822F762F6A2F38
S113074011249F5750408AF0E1F088234AF0EE0FBD
S1130750FF1FBB1F661F771F881F91505040A9F7CA
S11307609E3F510570F05CCFA6CF5F3FECF3983EFF
S1130770DCF3869577956795B795F795E7959F5F31
S1130780C1F7FE2B880F911D9695879597F90895CB
S1130790A0E0B0E0EDECF3E0B8C2FE013596619163
S11307A07191AF01809106029091070231D0E2E08D
S11307B0C8C20F931F93CF93DF938C01E09106027D
S11307C0F0910702838181FF1BC0C0E0D0E005C027
S11307D00995892B11F0CFEFDFEFF80181918F019B
S11307E06091060270910702DB011896ED91FC916D
S11307F019978111EDCF8AE00995892B09F402C07C
S1130800CFEFDFEFCE01DF91CF911F910F910895CC
S1130810ACE0B0E0EDE0F4E068C27C016B018A0179
S1130820FC0117821682838181FFB9C188248394D5
S1130830912C8C0E9D1EF7019381F60193FD8591F9
S113084093FF81916F01882309F4A5C1853239F49E
S113085093FD859193FF81916F01853221F4B70156
S113086090E0B9D1E8CF512C312C20E02032A8F40B
S11308708B3261F028F4803251F0833271F40BC072
S11308808D3239F0803349F4216028C0226024601D
S113089025C0286023C0206121C027FD27C0382F30
S11308A030533A3078F426FF06C0FAE05F9E300DEC
S11308B01124532E13C08AE0389E300D1124332E98
S11308C020620CC08E3221F426FD65C1206406C06E
S11308D08C3611F4206802C0883641F4F60193FD89
S11308E0859193FF81916F018111C0CF982F955409
S11308F0933018F09052933028F40C5F1F4FFFE3AD
S1130900F9830DC0833631F0833771F0833509F0F4
S11309105AC022C0F801808189830E5F1F4F44248E
S11309204394512C540114C03801F2E06F0E711C31
S1130930F801A080B18026FF03C0652D70E002C0DD
S11309406FEF7FEFC5012C873BD12C0183012C85F0
S11309506FE7262E222217C03801F2E06F0E711CB9
S1130960F801A080B18026FF03C0652D70E002C0AD
S11309706FEF7FEFC5012C8718D12C012C8550E82F
S1130980252E222A830123FC1AC005C0B70180E268
S113099090E021D13A94832D90E048165906B0F3A3
S11309A00EC0F50127FC859127FE81915F01B701F7
S11309B090E011D131103A94F1E04F1A51084114EA
S11309C0510479F7E5C0843611F0893639F5F80118
S11309D027FF07C060817181828193810C5F1F4F63
S11309E008C060817181882777FD8095982F0E5FFC
S11309F01F4F4FE6B42EB22297FF09C09095809501
S1130A00709561957F4F8F4F9F4FF0E8BF2A2AE082
S1130A1030E0A4010CD1A82EA81842C0853731F4C7
S1130A203FEEB32EB2222AE030E024C099EFB92E73
S1130A30B2228F36B9F020F4883509F0ACC00DC06D
S1130A40803721F0883709F0A6C002C020E1B22A1D
S1130A50B4FE0BC084E0B82A08C024FF09C0E6E055
S1130A60BE2A06C028E030E005C020E130E002C024
S1130A7020E132E0F801B7FE07C060817181828114
S1130A8093810C5F1F4F06C06081718180E090E00C
S1130A900E5F1F4FA401CBD0A82EA818FFE7BF22DA
S1130AA0B6FE0BC02B2D2E7FA51450F4B4FE0AC045
S1130AB0B2FC08C02B2D2E7E05C07A2C2B2D03C032
S1130AC07A2C01C0752C24FF0DC0FE01EA0DF11D26
S1130AD08081803311F4297E09C022FF06C07394FB
S1130AE0739404C0822F867809F0739423FD13C095
S1130AF020FF0EC05A2C731458F4530C5718732C3F
S1130B0007C0B70180E290E02C8765D073942C85F0
S1130B107314B8F304C0731410F4371801C0312CE3
S1130B2024FF11C0B70180E390E02C8754D02C85BA
S1130B3022FF1CC021FF03C088E590E002C088E7C3
S1130B4090E0B7010CC0822F867881F021FD02C0AD
S1130B5080E201C08BE227FD8DE2B70190E03BD03B
S1130B6005C0B70180E390E036D05A94A514C8F3C9
S1130B70AA94F401EA0DF11DB701808190E02BD015
S1130B80A110F6CF05C0B70180E290E024D03A94DA
S1130B903110F9CF50CEF7012681378102C02FEFF3
S1130BA03FEFC9012C96E2E1BCC0FC010590615005
S1130BB070400110D8F7809590958E0F9F1F08956F
S1130BC0FC016150704001900110D8F78095909518
S1130BD08E0F9F1F08950F931F93CF93DF938C0164
S1130BE0EB018B8181FD03C00FEF1FEF1AC082FF61
S1130BF00DC02E813F818C819D812817390764F4B3
S1130C00E881F9810193F983E88306C0E885F985D1
S1130C10802F0995892B41F78E819F8101969F83AF
S1130C208E83C801DF91CF911F910F910895FA012E
S1130C30AA27283051F1203181F1E8946F936E7F17
S1130C406E5F7F4F8F4F9F4FAF4FB1E03ED0B4E008
S1130C503CD0670F781F891F9A1FA11D680F791F49
S1130C608A1F911DA11D6A0F711D811D911DA11D5A
S1130C7020D009F468943F912AE0269F112430196A
S1130C80305D3193DEF6CF010895462F4770405D05
S1130C904193B3E00FD0C9F7F6CF462F4F70405DB4
S1130CA04A3318F0495D31FD4052419302D0A9F70F
S1130CB0EACFB4E0A6959795879577956795BA9509
S1130CC0C9F700976105710508959B01AC010A2ECF
S1130CD006945795479537952795BA95C9F7620FA6
S1130CE0731F841F951FA01D08952F923F924F924A
S1130CF05F926F927F928F929F92AF92BF92CF92A8
S1130D00DF92EF92FF920F931F93CF93DF93CDB7B0
S1130D10DEB7CA1BDB0B0FB6F894DEBF0FBECDBF28
S1130D2009942A88398848885F846E847D848C84F9
S1130D309B84AA84B984C884DF80EE80FD800C8102
S1130D401B81AA81B981CE0FD11D0FB6F894DEBFE5
S10F0D500FBECDBFED010895F894FFCF55
S1130D5C0000000300000000F400150100005072B4
S1130D6C657373206120746F20696E63726561739F
S1130D7C652050574D2C207320746F20646563726A
S1130D8C656173652070776D3A0057616974696E9B
S1130D9C6720666F7220696E7075740D0050574D24
S1130DAC20446F776E3A2025640D0A0050574D206D
S1130DBC55703A2025640D0A005374617274204FE7
S1130DCC435231420D005374617274204F435231BB
S1130DDC410D002564200D0A004C696D697473770C
S1130DEC6974636820697320707265737365642019
S1130DFC2564210D0A004572726F723A20446F6F9C
S1130E0C7220697320616C7265616479206C6F6304
S1130E1C6B65642E004572726F723A20446F6F7268
S1130E2C20697320616C726561647920756E6C6FD6
S1130E3C636B65642E00696E2074696D6572206F36
S1130E4C766572666C6F773A202564207365636FE0
S1130E5C6E64732068617665207061737365640DCC
S1130E6C0A00496E206C6F636B65642048572069D7
S1130E7C6E746572727570742025640D0A00696E47
S1130E8C20756E6C6F636B20485720696E746572A5
S1130E9C72757074005374617274696E67206D613D
S1130EAC696E206C6F6F702E2E2E2E0D006E6F20BF
S1130EBC6163746976652066756E6374696F6E73AD
S1110ECC2072756E6E696E672E2E2E0D00005C
S9030000FC
