:1000000010C034C105C228C0EBC026C025C024C022
:1000100023C022C021C020C01FC01EC01DC01CC0E4
:100020001BC011241FBECFE5D2E0DEBFCDBF11E063
:10003000A0E6B0E0ECE0F1E102C005900D92A43240
:10004000B107D9F721E0A4E2B1E001C01D92A435C7
:10005000B207E1F7E2D258C8D3CF0F931F93CF93E3
:10006000DF93CDB7DEB7A8D200912A0110912B0102
:1000700020912C0130912D0140912E0150912F01A2
:100080006091300170913101809132015FD2009115
:100090003C0110913D0120913E0130913F01409182
:1000A0004001509141016091420170914301809162
:1000B00044014CD200912A0110912B0120912C0176
:1000C00030912D0140912E0150912F01609130010E
:1000D0007091310180913201CFD100913C0110919A
:1000E0003D0120913E0130913F01409140015091EE
:1000F0004101609142017091430180914401BCD162
:10010000DF91CF911F910F910895CF93DF9300D08E
:10011000CDB7DEB79A838983F89480E490E0298193
:100120003A81232F3327FC01208389E290E0298143
:10013000FC0120838AE290E028E1FC01208380E436
:1001400090E02EE8FC01208380E690E090934F0140
:1001500080934E0180E690E090935101809350018E
:1001600078940F900F90DF91CF910895CF93DF9304
:1001700000D01F92CDB7DEB789837B836A830000EE
:100180008BE290E0FC018081882F90E080729927BB
:100190000097B1F38CE290E02981FC01208380E09C
:1001A00090E00F900F900F90DF91CF910895CF9333
:1001B000DF9300D0CDB7DEB79A83898300008BE24E
:1001C00090E0FC0180818823D4F78CE290E0FC0170
:1001D0008081882F90E00F900F90DF91CF9108954C
:1001E0001F920F9200905F000F9211242F933F9364
:1001F0004F935F936F937F938F939F93AF93BF932F
:10020000EF93FF93CF93DF93CDB7DEB780912601B5
:100210009091270101969093270180932601809168
:10022000260190912701292F2F938F938EE690E03E
:10023000892F8F938EE690E08F9382D40F900F904A
:100240000F900F90DF91CF91FF91EF91BF91AF9100
:100250009F918F917F916F915F914F913F912F91DE
:100260000F9000925F000F901F9018951F920F92B1
:1002700000905F000F9211240F931F932F933F93D1
:100280004F935F936F937F938F939F93AF93BF939E
:10029000EF93FF93CF93DF93CDB7DEB72E97DEBFFB
:1002A000CDBF80E090E0A8E4B2E489839A83AB8379
:1002B000BC8320E030E04AE753E469817A818B8196
:1002C0009C81DBD3DC01CB018D839E83AF83B88718
:1002D00020E030E040E85FE36D817E818F8198858A
:1002E00023D388232CF481E090E09A8789873EC04D
:1002F00020E03FEF4FE757E46D817E818F81988545
:10030000B8D3181654F520E030E040E251E469819A
:100310007A818B819C81B1D3DC01CB01BC01CD0101
:1003200007D3DC01CB019A87898712C089E190E06D
:100330009C878B878B859C858C01C8010197F1F781
:100340008C011C870B8789859A8501979A878987F5
:1003500089859A85009751F716C06D817E818F81BE
:100360009885E6D2DC01CB019A87898789859A85B1
:100370009E878D878D859E858C01C8010197F1F739
:100380008C011E870D871092250110922401809107
:1003900028019091290101969093290180932801C9
:1003A000209124013091250180912801909129010B
:1003B000432F4F932F93292F2F938F938AE990E008
:1003C000892F8F938AE990E08F93BAD30F900F9083
:1003D0000F900F900F900F902E960FB6F894DEBFEF
:1003E0000FBECDBFDF91CF91FF91EF91BF91AF9144
:1003F0009F918F917F916F915F914F913F912F913D
:100400001F910F910F9000925F000F901F90189511
:100410001F920F9200905F000F9211242F933F9331
:100420004F935F936F937F938F939F93AF93BF93FC
:10043000EF93FF93CF93DF93CDB7DEB788EC90E0D7
:10044000892F8F9388EC90E08F937AD30F900F9041
:10045000DF91CF91FF91EF91BF91AF919F918F91DC
:100460007F916F915F914F913F912F910F900092EB
:100470005F000F901F9018950F931F93CF93DF93FA
:10048000CDB7DEB729970FB6F894DEBF0FBECDBF4C
:1004900009831A832B833C834D835E836F83788724
:1004A00089878C819D812C813D81F9012081622F7A
:1004B0002981422F50E021E030E0042E02C0220FBB
:1004C000331F0A94E2F7262BFC01208329960FB6EE
:1004D000F894DEBF0FBECDBFDF91CF911F910F917A
:1004E00008950F931F93CF93DF93CDB7DEB729976E
:1004F0000FB6F894DEBF0FBECDBF09831A832B83DE
:100500003C834D835E836F83788789878A819B8153
:100510002A813B81F9012081622F2981422F50E0FD
:1005200021E030E0042E02C0220F331F0A94E2F7CC
:10053000262BFC01208329960FB6F894DEBF0FBE50
:10054000CDBFDF91CF911F910F9108950F931F930E
:10055000CF93DF93CDB7DEB729970FB6F894DEBF00
:100560000FBECDBF09831A832B833C834D835E83EB
:100570006F83788789878A819B812A813B81F901F2
:100580002081622F2981422F50E021E030E0042EAB
:1005900002C0220F331F0A94E2F720952623FC01A4
:1005A000208329960FB6F894DEBF0FBECDBFDF9132
:1005B000CF911F910F910895CF93DF93CDB7DEB701
:1005C00085E080932A0182E390E090932C01809350
:1005D0002B0181E390E090932E0180932D018AE41A
:1005E00090E0909332018093310182E080933C014E
:1005F00087E290E090933E0180933D0186E290E097
:100600009093400180933F0188E490E090934401EF
:1006100080934301DF91CF9108950F931F93CF9360
:10062000DF93CDB7DEB762970FB6F894DEBF0FBE8B
:10063000CDBF6FD18FED90E094D280914E0190911B
:100640004F019A83898380914E0190914F019C8341
:100650008B8377D087EF90E084D280E090E0AAE7A8
:10066000B4E48D839E83AF83B88720E030E04AE70F
:1006700053E46D817E818F819885FFD1DC01CB01B0
:1006800089879A87AB87BC8720E030E040E85FE34A
:1006900069857A858B859C8547D188232CF481E0F8
:1006A00090E09E878D873EC020E03FEF4FE757E404
:1006B00069857A858B859C85DCD1181654F520E0F8
:1006C00030E040E251E46D817E818F819885D5D103
:1006D000DC01CB01BC01CD012BD1DC01CB019E871C
:1006E0008D8712C089E190E0988B8F878F859889DC
:1006F0008C01C8010197F1F78C01188B0F878D854C
:100700009E8501979E878D878D859E85009751F7E1
:1007100017C069857A858B859C850AD1DC01CB0160
:100720009E878D878D859E859A8B898B89899A89ED
:100730008C01C8010197F1F78C011A8B098B8ACFC4
:1007400089CF0F931F93CF93DF93CDB7DEB72E974B
:100750000FB6F894DEBF0FBECDBF00912A011091F5
:100760002B0120912C0130912D0140912E015091AF
:100770002F01609130017091310180913201B1DE21
:1007800000913C0110913D0120913E0130913F01CB
:1007900040914001509141016091420170914301AB
:1007A000809144019EDE81E090E09093250180934A
:1007B000240175C087E191E0D4D180E090E0AAE700
:1007C000B4E489839A83AB83BC8320E030E04AE7BA
:1007D00053E469817A818B819C814FD1DC01CB010B
:1007E0008D839E83AF83B88720E030E040E85FE3ED
:1007F0006D817E818F81988597D088232CF481E04C
:1008000090E09A8789873EC020E03FEF4FE757E4AA
:100810006D817E818F8198852CD1181654F520E04A
:1008200030E040E251E469817A818B819C8125D15D
:10083000DC01CB01BC01CD017BD0DC01CB019A876F
:10084000898712C089E190E09C878B878B859C8586
:100850008C01C8010197F1F78C011C870B878985F2
:100860009A8501979A87898789859A85009751F794
:1008700016C06D817E818F8198855AD0DC01CB01B5
:100880009A87898789859A859E878D878D859E859C
:100890008C01C8010197F1F78C011E870D878091AB
:1008A0002401909125018130910509F483CF0091B5
:1008B0002A0110912B0120912C0130912D014091A2
:1008C0002E0150912F016091300170913101809182
:1008D00032013CDE00913C0110913D0120913E012E
:1008E00030913F014091400150914101609142019E
:1008F000709143018091440129DE00002E960FB6CD
:10090000F894DEBF0FBECDBFDF91CF911F910F9145
:100910000895CF93DF93CDB7DEB783E390E0F5DBA7
:100920009CDBDF91CF9108952FD008F481E00895EA
:100930007FD088F09F5790F0B92F9927B751A0F03A
:10094000D1F0660F771F881F991F1AF0BA95C9F763
:1009500012C0B13081F086D0B1E0089583C0672F16
:10096000782F8827B85F39F0B93FCCF38695779513
:100970006795B395D9F73EF49095809570956195FC
:100980007F4F8F4F9F4F0895990F0008550FAA0B67
:10099000E0E8FEEF16161706E807F907C0F0121692
:1009A0001306E407F50798F0621B730B840B950B95
:1009B00039F40A2661F0232B242B252B21F40895EA
:1009C0000A2609F4A140A6958FEF811D811D089587
:1009D00097F99F6780E870E060E008959FEF80ECF2
:1009E000089500240A941616170618060906089595
:1009F00000240A9412161306140605060895092EFB
:100A00000394000C11F4882352F0BB0F40F4BF2B69
:100A100011F460FF04C06F5F7F4F8F4F9F4F0895A9
:100A200057FD9058440F551F59F05F3F71F047959F
:100A3000880F97FB991F61F09F3F79F08795089584
:100A4000121613061406551FF2CF4695F1DF08C0A3
:100A5000161617061806991FF1CF869571056105C0
:100A600008940895E894BB2766277727CB0197F968
:100A700008958ADF08F48FEF08950BD0C0CFB1DF5F
:100A800028F0B6DF18F0952309F0A2CFA7CF1124E4
:100A9000EACFC6DFA0F3959FD1F3950F50E0551F25
:100AA000629FF001729FBB27F00DB11D639FAA27C3
:100AB000F00DB11DAA1F649F6627B00DA11D661F12
:100AC000829F2227B00DA11D621F739FB00DA11D33
:100AD000621F839FA00D611D221F749F3327A00DED
:100AE000611D231F849F600D211D822F762F6A2F89
:100AF00011249F5750408AF0E1F088234AF0EE0F0E
:100B0000FF1FBB1F661F771F881F91505040A9F71A
:100B10009E3F510570F05CCFA6CF5F3FECF3983E4F
:100B2000DCF3869577956795B795F795E7959F5F81
:100B3000C1F7FE2B880F911D9695879597F908951B
:100B4000A0E0B0E0E5EAF5E0B8C2FE0135966191BB
:100B50007191AF01809150019091510131D0E2E04B
:100B6000C8C20F931F93CF93DF938C01E091500184
:100B7000F0915101838181FF1BC0C0E0D0E005C02E
:100B80000995892B11F0CFEFDFEFF80181918F01EB
:100B90006091500170915101DB011896ED91FC912B
:100BA00019978111EDCF8AE00995892B09F402C0CC
:100BB000CFEFDFEFCE01DF91CF911F910F9108951D
:100BC000ACE0B0E0E5EEF5E068C27C016B018A01C3
:100BD000FC0117821682838181FFB9C18824839426
:100BE000912C8C0E9D1EF7019381F60193FD85914A
:100BF00093FF81916F01882309F4A5C1853239F4EF
:100C000093FD859193FF81916F01853221F4B701A6
:100C100090E0B9D1E8CF512C312C20E02032A8F45B
:100C20008B3261F028F4803251F0833271F40BC0C2
:100C30008D3239F0803349F4216028C0226024606D
:100C400025C0286023C0206121C027FD27C0382F80
:100C500030533A3078F426FF06C0FAE05F9E300D3C
:100C60001124532E13C08AE0389E300D1124332EE8
:100C700020620CC08E3221F426FD65C1206406C0BE
:100C80008C3611F4206802C0883641F4F60193FDD9
:100C9000859193FF81916F018111C0CF982F955459
:100CA000933018F09052933028F40C5F1F4FFFE3FD
:100CB000F9830DC0833631F0833771F0833509F045
:100CC0005AC022C0F801808189830E5F1F4F4424DF
:100CD0004394512C540114C03801F2E06F0E711C82
:100CE000F801A080B18026FF03C0652D70E002C02E
:100CF0006FEF7FEFC5012C873BD12C0183012C8541
:100D00006FE7262E222217C03801F2E06F0E711C09
:100D1000F801A080B18026FF03C0652D70E002C0FD
:100D20006FEF7FEFC5012C8718D12C012C8550E87F
:100D3000252E222A830123FC1AC005C0B70180E2B8
:100D400090E021D13A94832D90E048165906B0F3F3
:100D50000EC0F50127FC859127FE81915F01B70147
:100D600090E011D131103A94F1E04F1A510841143A
:100D7000510479F7E5C0843611F0893639F5F80168
:100D800027FF07C060817181828193810C5F1F4FB3
:100D900008C060817181882777FD8095982F0E5F4C
:100DA0001F4F4FE6B42EB22297FF09C09095809551
:100DB000709561957F4F8F4F9F4FF0E8BF2A2AE0D3
:100DC00030E0A4010CD1A82EA81842C0853731F418
:100DD0003FEEB32EB2222AE030E024C099EFB92EC4
:100DE000B2228F36B9F020F4883509F0ACC00DC0BE
:100DF000803721F0883709F0A6C002C020E1B22A6E
:100E0000B4FE0BC084E0B82A08C024FF09C0E6E0A5
:100E1000BE2A06C028E030E005C020E130E002C074
:100E200020E132E0F801B7FE07C060817181828164
:100E300093810C5F1F4F06C06081718180E090E05C
:100E40000E5F1F4FA401CBD0A82EA818FFE7BF222A
:100E5000B6FE0BC02B2D2E7FA51450F4B4FE0AC095
:100E6000B2FC08C02B2D2E7E05C07A2C2B2D03C082
:100E70007A2C01C0752C24FF0DC0FE01EA0DF11D76
:100E80008081803311F4297E09C022FF06C073944B
:100E9000739404C0822F867809F0739423FD13C0E5
:100EA00020FF0EC05A2C731458F4530C5718732C8F
:100EB00007C0B70180E290E02C8765D073942C8541
:100EC0007314B8F304C0731410F4371801C0312C34
:100ED00024FF11C0B70180E390E02C8754D02C850B
:100EE00022FF1CC021FF03C088E590E002C088E714
:100EF00090E0B7010CC0822F867881F021FD02C0FE
:100F000080E201C08BE227FD8DE2B70190E03BD08B
:100F100005C0B70180E390E036D05A94A514C8F319
:100F2000AA94F401EA0DF11DB701808190E02BD065
:100F3000A110F6CF05C0B70180E290E024D03A942A
:100F40003110F9CF50CEF7012681378102C02FEF43
:100F50003FEFC9012C96E2E1BCC0FC010590615055
:100F600070400110D8F7809590958E0F9F1F0895BF
:100F7000FC016150704001900110D8F78095909568
:100F80008E0F9F1F08950F931F93CF93DF938C01B4
:100F9000EB018B8181FD03C00FEF1FEF1AC082FFB1
:100FA0000DC02E813F818C819D812817390764F403
:100FB000E881F9810193F983E88306C0E885F98522
:100FC000802F0995892B41F78E819F8101969F8300
:100FD0008E83C801DF91CF911F910F910895FA017F
:100FE000AA27283051F1203181F1E8946F936E7F68
:100FF0006E5F7F4F8F4F9F4FAF4FB1E03ED0B4E059
:101000003CD0670F781F891F9A1FA11D680F791F99
:101010008A1F911DA11D6A0F711D811D911DA11DAA
:1010200020D009F468943F912AE0269F11243019BA
:10103000305D3193DEF6CF010895462F4770405D55
:101040004193B3E00FD0C9F7F6CF462F4F70405D04
:101050004A3318F0495D31FD4052419302D0A9F75F
:10106000EACFB4E0A6959795879577956795BA9559
:10107000C9F700976105710508959B01AC010A2E1F
:1010800006945795479537952795BA95C9F7620FF6
:10109000731F841F951FA01D08952F923F924F929A
:1010A0005F926F927F928F929F92AF92BF92CF92F8
:1010B000DF92EF92FF920F931F93CF93DF93CDB701
:1010C000DEB7CA1BDB0B0FB6F894DEBF0FBECDBF79
:1010D00009942A88398848885F846E847D848C844A
:1010E0009B84AA84B984C884DF80EE80FD800C8153
:1010F0001B81AA81B981CE0FD11D0FB6F894DEBF36
:0C1100000FBECDBFED010895F894FFCFA5
:10110C000000000300000000B600D7000000696E6C
:10111C002074696D6572206F766572666C6F773AB4
:10112C00202564207365636F6E6473206861766537
:10113C00207061737365640D0A00496E206C6F63D7
:10114C006B656420485720696E7465727275707493
:10115C002025642C20496E5F70726F677265737303
:10116C00203D2025640D0A00696E20756E6C6F633E
:10117C006B20485720696E746572727570740053D9
:10118C0074617274696E67206D61696E206C6F6F2B
:10119C00702E2E2E2E0D006E6F2061637469766595
:1011AC002066756E6374696F6E732072756E6E69EE
:1011BC006E672E2E2E0D00696E207768696C652E79
:0411CC002E2E0D00B6
:00000001FF
