S01D000053656E696F7250726F6A656374424C494E4B4C45442E737265637B
S113000010C034C105C228C0EBC026C025C024C01E
S113001023C022C021C020C01FC01EC01DC01CC0E0
S11300201BC011241FBECFE5D2E0DEBFCDBF11E05F
S1130030A0E6B0E0ECE1FFE002C005900D92A03331
S1130040B107D9F721E0A0E3B1E001C01D92A036C9
S1130050B207E1F7ADD260C7D3CF0F931F93CF930D
S1130060DF93CDB7DEB773D200913601109137011B
S1130070209138013091390140913A0150913B016E
S113008060913C0170913D0180913E012AD2009122
S113009048011091490120914A0130914B0140914E
S11300A04C0150914D0160914E0170914F0180912E
S11300B0500117D200913601109137012091380177
S11300C03091390140913A0150913B0160913C01DA
S11300D070913D0180913E01CFD100914801109172
S11300E0490120914A0130914B0140914C015091BA
S11300F04D0160914E0170914F0180915001BCD12E
S1130100DF91CF911F910F910895CF93DF9300D08A
S1130110CDB7DEB79A838983F89480E490E029818F
S11301203A81232F3327FC01208389E290E029813F
S1130130FC0120838AE290E028E1FC01208380E432
S113014090E02EE8FC01208380E690E090935B0130
S113015080935A0180E690E090935D0180935C0166
S113016078940F900F90DF91CF910895CF93DF9300
S113017000D01F92CDB7DEB789837B836A830000EA
S11301808BE290E0FC018081882F90E080729927B7
S11301900097B1F38CE290E02981FC01208380E098
S11301A090E00F900F900F90DF91CF910895CF932F
S11301B0DF9300D0CDB7DEB79A83898300008BE24A
S11301C090E0FC0180818823D4F78CE290E0FC016C
S11301D08081882F90E00F900F90DF91CF91089548
S11301E01F920F9200905F000F9211242F933F9360
S11301F04F935F936F937F938F939F93AF93BF932B
S1130200EF93FF93CF93DF93CDB7DEB780913201A5
S11302109091330101969093330180933201809140
S1130220320190913301292F2F938F938EE690E022
S1130230892F8F938EE690E08F938AD30F900F903F
S11302400F900F90DF91CF91FF91EF91BF91AF91FC
S11302509F918F917F916F915F914F913F912F91DA
S11302600F9000925F000F901F9018951F920F92AD
S113027000905F000F9211240F931F932F933F93CD
S11302804F935F936F937F938F939F93AF93BF939A
S1130290EF93FF93CF93DF93CDB7DEB72E97DEBFF7
S11302A0CDBF80E090E0A8E4B2E489839A83AB8375
S11302B0BC8320E030E04AE753E469817A818B8192
S11302C09C81E3D2DC01CB018D839E83AF83B8870D
S11302D020E030E040E85FE36D817E818F81988586
S11302E02BD288232CF481E090E09A8789873EC042
S11302F020E03FEF4FE757E46D817E818F81988541
S1130300C0D2181654F520E030E040E251E469818F
S11303107A818B819C81B9D2DC01CB01BC01CD01F6
S11303200FD2DC01CB019A87898712C089E190E062
S11303309C878B878B859C858C01C8010197F1F77D
S11303408C011C870B8789859A8501979A878987F1
S113035089859A85009751F716C06D817E818F81BA
S11303609885EED1DC01CB019A87898789859A85A6
S11303709E878D878D859E858C01C8010197F1F735
S11303808C011E870D8710923101109230018091EB
S11303903401909135010196909335018093340195
S11303A020913001309131018091340190913501D7
S11303B0432F4F932F93292F2F938F938AE990E004
S11303C0892F8F938AE990E08F93C2D20F900F9078
S11303D00F900F900F900F902E960FB6F894DEBFEB
S11303E00FBECDBFDF91CF91FF91EF91BF91AF9140
S11303F09F918F917F916F915F914F913F912F9139
S11304001F910F910F9000925F000F901F9018950D
S11304101F920F9200905F000F9211242F933F932D
S11304204F935F936F937F938F939F93AF93BF93F8
S1130430EF93FF93CF93DF93CDB7DEB788EC90E0D3
S1130440892F8F9388EC90E08F9382D20F900F9036
S1130450DF91CF91FF91EF91BF91AF919F918F91D8
S11304607F916F915F914F913F912F910F900092E7
S11304705F000F901F9018950F931F93CF93DF93F6
S1130480CDB7DEB729970FB6F894DEBF0FBECDBF48
S113049009831A832B833C834D835E836F83788720
S11304A089878C819D812C813D81F9012081622F76
S11304B02981422F50E021E030E0042E02C0220FB7
S11304C0331F0A94E2F7262BFC01208329960FB6EA
S11304D0F894DEBF0FBECDBFDF91CF911F910F9176
S11304E008950F931F93CF93DF93CDB7DEB729976A
S11304F00FB6F894DEBF0FBECDBF09831A832B83DA
S11305003C834D835E836F83788789878A819B814F
S11305102A813B81F9012081622F2981422F50E0F9
S113052021E030E0042E02C0220F331F0A94E2F7C8
S113053020952623FC01208329960FB6F894DEBF6C
S11305400FBECDBFDF91CF911F910F910895CF932F
S1130550DF93CDB7DEB785E08093360182E390E088
S1130560909338018093370181E390E090933A01AE
S1130570809339018AE490E090933E0180933D0199
S113058082E08093480187E290E090934A0180934F
S1130590490186E290E090934C0180934B0188E4FA
S11305A090E09093500180934F01DF91CF91089593
S11305B00F931F93CF93DF93CDB7DEB763970FB637
S11305C0F894DEBF0FBECDBFACD08FED90E0D1D19B
S11305D080915A0190915B019B838A8380915A0197
S11305E090915B019D838C8381E689830EC087EFA4
S11305F090E0892F8F9387EF90E08F93A9D10F908C
S11306000F908C819D81D3DD89838981813779F72E
S113061081E390E021E330E0F90120812F7DFC01AA
S1130620208386E290E026E230E0F90120812B7FEE
S1130630FC01208382E091E09CD180E090E0AAE775
S1130640B4E48E839F83A887B98720E030E04AE72B
S113065053E46E817F818885998517D1DC01CB01B4
S11306608A879B87AC87BD8720E030E040E85FE362
S11306706A857B858C859D855FD088232CF481E0F9
S113068090E09F878E873EC020E03FEF4FE757E41E
S11306906A857B858C859D85F4D0181654F520E0F9
S11306A030E040E251E46E817F8188859985EDD008
S11306B0DC01CB01BC01CD0143D0DC01CB019F8720
S11306C08E8712C089E190E0998B888B88899989FB
S11306D08C01C8010197F1F78C01198B088B8E8569
S11306E09F8501979F878E878E859F85009751F7F9
S11306F017C06A857B858C859D8522D0DC01CB0162
S11307009F878E878E859F859B8B8A8B8A899B8901
S11307108C01F8013197F1F78F011B8B0A8B8ACF7B
S113072089CFCF93DF93CDB7DEB783E390E0EDDCE1
S113073094DCDF91CF9108952FD008F481E00895DF
S11307407FD088F09F5790F0B92F9927B751A0F028
S1130750D1F0660F771F881F991F1AF0BA95C9F751
S113076012C0B13081F086D0B1E0089583C0672F04
S1130770782F8827B85F39F0B93FCCF38695779501
S11307806795B395D9F73EF49095809570956195EA
S11307907F4F8F4F9F4F0895990F0008550FAA0B55
S11307A0E0E8FEEF16161706E807F907C0F0121680
S11307B01306E407F50798F0621B730B840B950B83
S11307C039F40A2661F0232B242B252B21F40895D8
S11307D00A2609F4A140A6958FEF811D811D089575
S11307E097F99F6780E870E060E008959FEF80ECE0
S11307F0089500240A941616170618060906089583
S113080000240A9412161306140605060895092EE8
S11308100394000C11F4882352F0BB0F40F4BF2B57
S113082011F460FF04C06F5F7F4F8F4F9F4F089597
S113083057FD9058440F551F59F05F3F71F047958D
S1130840880F97FB991F61F09F3F79F08795089572
S1130850121613061406551FF2CF4695F1DF08C091
S1130860161617061806991FF1CF869571056105AE
S113087008940895E894BB2766277727CB0197F956
S113088008958ADF08F48FEF08950BD0C0CFB1DF4D
S113089028F0B6DF18F0952309F0A2CFA7CF1124D2
S11308A0EACFC6DFA0F3959FD1F3950F50E0551F13
S11308B0629FF001729FBB27F00DB11D639FAA27B1
S11308C0F00DB11DAA1F649F6627B00DA11D661F00
S11308D0829F2227B00DA11D621F739FB00DA11D21
S11308E0621F839FA00D611D221F749F3327A00DDB
S11308F0611D231F849F600D211D822F762F6A2F77
S113090011249F5750408AF0E1F088234AF0EE0FFB
S1130910FF1FBB1F661F771F881F91505040A9F708
S11309209E3F510570F05CCFA6CF5F3FECF3983E3D
S1130930DCF3869577956795B795F795E7959F5F6F
S1130940C1F7FE2B880F911D9695879597F9089509
S1130950A0E0B0E0EDEAF4E0B8C2FE0135966191A2
S11309607191AF0180915C0190915D0131D0E2E021
S1130970C8C20F931F93CF93DF938C01E0915C0166
S1130980F0915D01838181FF1BC0C0E0D0E005C010
S11309900995892B11F0CFEFDFEFF80181918F01D9
S11309A060915C0170915D01DB011896ED91FC9101
S11309B019978111EDCF8AE00995892B09F402C0BA
S11309C0CFEFDFEFCE01DF91CF911F910F9108950B
S11309D0ACE0B0E0EDEEF4E068C27C016B018A01AA
S11309E0FC0117821682838181FFB9C18824839414
S11309F0912C8C0E9D1EF7019381F60193FD859138
S1130A0093FF81916F01882309F4A5C1853239F4DC
S1130A1093FD859193FF81916F01853221F4B70194
S1130A2090E0B9D1E8CF512C312C20E02032A8F449
S1130A308B3261F028F4803251F0833271F40BC0B0
S1130A408D3239F0803349F4216028C0226024605B
S1130A5025C0286023C0206121C027FD27C0382F6E
S1130A6030533A3078F426FF06C0FAE05F9E300D2A
S1130A701124532E13C08AE0389E300D1124332ED6
S1130A8020620CC08E3221F426FD65C1206406C0AC
S1130A908C3611F4206802C0883641F4F60193FDC7
S1130AA0859193FF81916F018111C0CF982F955447
S1130AB0933018F09052933028F40C5F1F4FFFE3EB
S1130AC0F9830DC0833631F0833771F0833509F033
S1130AD05AC022C0F801808189830E5F1F4F4424CD
S1130AE04394512C540114C03801F2E06F0E711C70
S1130AF0F801A080B18026FF03C0652D70E002C01C
S1130B006FEF7FEFC5012C873BD12C0183012C852E
S1130B106FE7262E222217C03801F2E06F0E711CF7
S1130B20F801A080B18026FF03C0652D70E002C0EB
S1130B306FEF7FEFC5012C8718D12C012C8550E86D
S1130B40252E222A830123FC1AC005C0B70180E2A6
S1130B5090E021D13A94832D90E048165906B0F3E1
S1130B600EC0F50127FC859127FE81915F01B70135
S1130B7090E011D131103A94F1E04F1A5108411428
S1130B80510479F7E5C0843611F0893639F5F80156
S1130B9027FF07C060817181828193810C5F1F4FA1
S1130BA008C060817181882777FD8095982F0E5F3A
S1130BB01F4F4FE6B42EB22297FF09C0909580953F
S1130BC0709561957F4F8F4F9F4FF0E8BF2A2AE0C1
S1130BD030E0A4010CD1A82EA81842C0853731F406
S1130BE03FEEB32EB2222AE030E024C099EFB92EB2
S1130BF0B2228F36B9F020F4883509F0ACC00DC0AC
S1130C00803721F0883709F0A6C002C020E1B22A5B
S1130C10B4FE0BC084E0B82A08C024FF09C0E6E093
S1130C20BE2A06C028E030E005C020E130E002C062
S1130C3020E132E0F801B7FE07C060817181828152
S1130C4093810C5F1F4F06C06081718180E090E04A
S1130C500E5F1F4FA401CBD0A82EA818FFE7BF2218
S1130C60B6FE0BC02B2D2E7FA51450F4B4FE0AC083
S1130C70B2FC08C02B2D2E7E05C07A2C2B2D03C070
S1130C807A2C01C0752C24FF0DC0FE01EA0DF11D64
S1130C908081803311F4297E09C022FF06C0739439
S1130CA0739404C0822F867809F0739423FD13C0D3
S1130CB020FF0EC05A2C731458F4530C5718732C7D
S1130CC007C0B70180E290E02C8765D073942C852F
S1130CD07314B8F304C0731410F4371801C0312C22
S1130CE024FF11C0B70180E390E02C8754D02C85F9
S1130CF022FF1CC021FF03C088E590E002C088E702
S1130D0090E0B7010CC0822F867881F021FD02C0EB
S1130D1080E201C08BE227FD8DE2B70190E03BD079
S1130D2005C0B70180E390E036D05A94A514C8F307
S1130D30AA94F401EA0DF11DB701808190E02BD053
S1130D40A110F6CF05C0B70180E290E024D03A9418
S1130D503110F9CF50CEF7012681378102C02FEF31
S1130D603FEFC9012C96E2E1BCC0FC010590615043
S1130D7070400110D8F7809590958E0F9F1F0895AD
S1130D80FC016150704001900110D8F78095909556
S1130D908E0F9F1F08950F931F93CF93DF938C01A2
S1130DA0EB018B8181FD03C00FEF1FEF1AC082FF9F
S1130DB00DC02E813F818C819D812817390764F4F1
S1130DC0E881F9810193F983E88306C0E885F98510
S1130DD0802F0995892B41F78E819F8101969F83EE
S1130DE08E83C801DF91CF911F910F910895FA016D
S1130DF0AA27283051F1203181F1E8946F936E7F56
S1130E006E5F7F4F8F4F9F4FAF4FB1E03ED0B4E046
S1130E103CD0670F781F891F9A1FA11D680F791F87
S1130E208A1F911DA11D6A0F711D811D911DA11D98
S1130E3020D009F468943F912AE0269F11243019A8
S1130E40305D3193DEF6CF010895462F4770405D43
S1130E504193B3E00FD0C9F7F6CF462F4F70405DF2
S1130E604A3318F0495D31FD4052419302D0A9F74D
S1130E70EACFB4E0A6959795879577956795BA9547
S1130E80C9F700976105710508959B01AC010A2E0D
S1130E9006945795479537952795BA95C9F7620FE4
S1130EA0731F841F951FA01D08952F923F924F9288
S1130EB05F926F927F928F929F92AF92BF92CF92E6
S1130EC0DF92EF92FF920F931F93CF93DF93CDB7EF
S1130ED0DEB7CA1BDB0B0FB6F894DEBF0FBECDBF67
S1130EE009942A88398848885F846E847D848C8438
S1130EF09B84AA84B984C884DF80EE80FD800C8141
S1130F001B81AA81B981CE0FD11D0FB6F894DEBF23
S10F0F100FBECDBFED010895F894FFCF93
S1130F1C0000000300000000B600D7000000696E5A
S1130F2C2074696D6572206F766572666C6F773AA2
S1130F3C202564207365636F6E6473206861766525
S1130F4C207061737365640D0A00496E206C6F63C5
S1130F5C6B656420485720696E7465727275707481
S1130F6C2025642C20496E5F70726F6772657373F1
S1130F7C203D2025640D0A00696E20756E6C6F632C
S1130F8C6B20485720696E746572727570740053C7
S1130F9C74617274696E67206D61696E206C6F6F19
S1130FAC702E2E2E2E0D007120746F2071756974A5
S1130FBC3A006E6F206163746976652066756E63A2
S1130FCC74696F6E732072756E6E696E672E2E2E39
S1130FDC0D00696E207768696C652E2E2E0D00004D
S9030000FC
